:020000040800F2
:10000000B0050020D5000008090E0008110A0008FC
:1000100000000000000000000000000000000000E0
:100020000000000000000000000000000D0E0008AD
:1000300000000000000000000B0E00080F0E00087A
:10004000E7000008E7000008E7000008E7000008F4
:10005000E7000008E7000008E7000008E7000008E4
:1000600000000000E7000008E700000800000000B2
:1000700025020008410E0008E7000008000000000B
:10008000E7000008E700000800000000E7000008A3
:1000900000000000E7000008E7000008E700000893
:1000A00000000000E700000800000000E700000872
:1000B000E700000800000000000000000000000051
:1000C0000348854600F064F800480047F90100083D
:1000D000B00500200448804704480047FEE7FEE7DB
:1000E000FEE7FEE7FEE7FEE7110E0008C10000088C
:1000F00070B50446002903D000202022012310E01F
:10010000002801D00020C043C046C0460DE025466F
:10011000D5408D4205D30D469540641B1D46954044
:1001200040191546521E002DF1DC214670BDF0B578
:100130001FB40646002082B005464024019100907D
:100140001BE0019922460F46304600F043F8049A1E
:10015000059B801A994110D310461946224600F09B
:1001600029F8361A8F410197224601200021009F6D
:1001700000F020F838184D4100902046641E0028F9
:10018000DFDC019B00982946324607B0F0BD000035
:10019000064C0125064E05E0E36807CC2B430C3CDA
:1001A00098471034B442F7D3FFF78EFF6419000864
:1001B0008419000810B5202A04DB0146203A91403A
:1001C000002010BD914020239C1A0346E3401943B0
:1001D000904010BD10B5202A04DB0846203AD040DC
:1001E000002110BD0B46D340D0402024A21A9140DC
:1001F0000843194610BD000080B5002007490122C0
:10020000D306C3580B50001DC028F8D1500704492D
:10021000086000F033FE002080BDC04600000020D2
:1002200008ED00E080B505480168890304D5012187
:100230004904016000F004F880BDC0460C1802407B
:10024000F0B5304B191F08684000C00F03D02E4A8C
:100250001268002A1AD02C4A1268012A4FD10028AD
:100260004DD10122D4430D6825400D601D68254005
:100270001D60192424051D68ADB22C191C601C6872
:1002800014431C600B6813430B6038E00122D44315
:100290000D6825400D601D6825401D60052424045F
:1002A0001D68ADB22C191C601C6814431C600B68DF
:1002B00013430B6015490968154B19601C490968FF
:1002C000144C6143144B1B68CE1800233519194692
:1002D0005941124C27686468F71B1F46A74117460F
:1002E00000D31F46002F00D13546084B1D600B4B35
:1002F0001D60002F00D13946596009490A60024942
:100300000860F0BD04020140DC00002078010020FC
:100310009401002010270000242C014070010020CF
:10032000A801002002480168491C01607047C046CE
:10033000A401002081B050490A6802231A430A60D0
:100340000968194000918000074908580099016820
:100350000322920291430122920289180160202116
:10036000816101B07047C046C4000020F0B585B07F
:1003700001267004404FB9680143B960B968014073
:1003800002913E48006819244443E120C1022046FE
:10039000FFF7AEFE05463A492046FFF7A9FE0446A0
:1003A000384860434019000132306421FFF7A0FE55
:1003B0000F21019102460A40F02303402001181842
:1003C0008018029A304B1A1F106030031A6882435B
:1003D0001A6070035A6882435A60032254021D68EF
:1003E000A5431D6012029C6894439C601A680C240B
:1003F00014431C601A6802431A600C3B4020C2433D
:100400001A603B6833433B603B6833400393039B74
:100410003B6833433B603B6833400493049B0523B4
:100420001B071C6820252C431027BC431C609C68BC
:10043000302121439960D9683943A943D960019D8E
:1004400029021C6A8C43B102611819621968802460
:100450002143114019609968C0220A439A60D96803
:100460000143A143D9602803196A8143B0030818E6
:10047000186205B0F0BDC04634100240C80000202C
:100480000020BF029CFFFF0F0C440040F0B587B076
:100490000690A54A1078012802D1022007B0F0BDCD
:1004A0000191012005901070A0480068C00A1C212D
:1004B00001409F4841589F4806680C68E7B29E4D2E
:1004C0009F4BBE4229D1260C2E404268B24224D115
:1004D0000269240AE4B2A2421FD182684C68E6B2E3
:1004E000B2421AD1220C954C2240C468944214D1D5
:1004F00042698C681C40A2420FD18269CC681C40C2
:10050000A2420AD1C2690C69A6B2B24205D1220C3C
:10051000FB4C2240046A944217D007604A882A4064
:1005200042604A7802610A798260CA88F34C2240AC
:10053000C2608A681A404261CA681A4082610A8AA7
:10054000C261498AEE4A1140016206980068032898
:1005500018D002282AD0012800D0DEE07D20C40077
:1005600000F0EAF906940419012005900604754D7F
:100570002F6837402ED000F0DFF9A042F8D3002FCB
:100580002DD0CAE07D20C40000F0D6F903940419F0
:100590000120059007046B4D2E683E4039D000F0D5
:1005A000CBF9A042F8D3002E37D0B6E07D20C400AE
:1005B00000F0C2F900940419012005900704614D70
:1005C0002E683E4060D000F0B7F9A042F8D3002E6C
:1005D0005ED0A2E0CD482860002F00D09DE000272B
:1005E000C14847606868042104910843686001209D
:1005F000C0065549016000F09FF906994418286823
:1006000030427DD000F098F9A042F8D30320059045
:1006100079E0BE482860002E7FD100200290C043C0
:10062000019908600698C36800690003C0188342F6
:1006300073D2B248401C696801436960FF2004938B
:10064000186000F079F9039946182C683C4005D0F1
:1006500000F072F9B042F8D3032002E0AB48286002
:1006600002980590049B0120C1026A688A436A606F
:10067000002C4DD100031B180699C86809690903AD
:1006800008188342D5D348E0A0482860002E44D102
:1006900000200290C0430199086006984268806873
:1006A000C0018018824238D28F4802994160686840
:1006B0000221039108436860FF200492106000F05B
:1006C0003BF9009946182C683C4005D000F034F9FD
:1006D000B042F8D3032002E08C48286002980590CD
:1006E000049A0399686888436860002C13D10699BE
:1006F00048688968C901081880328242D4D30CE066
:10070000059782482860686804998843686004E017
:100710000198036001E001980260002072490870AE
:10072000059807B0F0BDC0467C01002004100240CF
:100730006418000800210240FF010000FF070000CC
:10074000FFFF010010200240214334120120C007A6
:100750006D490A6802430A600868C043C00F7047C9
:10076000F0B585B00D4660490878012802D1022015
:1007700005B0F0BD0292012008705C490968C90A01
:100780001C220A405A498A585A490B681468E7B231
:100790005B4EBB4232D1230C574E33404E689E42D3
:1007A000574E2BD10B69240AE4B2A34226D18B68A1
:1007B0005468E6B2B342524E20D1230C4F4C234032
:1007C000CC689C421AD14B69049394684D4B1C40F1
:1007D000049BA34212D18B690493D468494B1C40FB
:1007E000049BA3420AD1CB691469A6B2B342444E1A
:1007F00004D1230C33400C6A9C4218D00F605388FC
:100800003D4C23404B6053780B6113798B60D38848
:100810003A4C2340CB6093683A4C23404B61D368F9
:1008200023408B61138ACB61528A32400A62690687
:1008300001D005B0F0BD7D20C40000F07DF801942A
:10084000071901200390000404902F48061F346804
:100850000498044007D000F06FF8B842F5D30320A5
:10086000002C3CD104E0294830600020002C36D117
:10087000254A1068039908431060EFF31080009038
:1008800072B60021029F204803E02D1D1F2911464A
:100890000AD204CF2A604A1C1F2AF6D1039BDB042C
:1008A00004681C430460F0E7009880F3108800F0AF
:1008B00043F80199451834680498044005D000F0C5
:1008C0003BF8A842F7D3032002E010483060002034
:1008D0000D4B1968039A91431960002CA9D100218E
:1008E000014A117005B0F0BD7C01002004100240E7
:1008F0006418000800210240FF010000FF0700000B
:10090000FF3F0000FFFF01001420024011800000A3
:100910000648C168002901D40020704704490160DD
:1009200004490160C068C00F7047C04608200240FB
:1009300023016745AB89EFCD014800687047C04689
:10094000AC01002080B5032000F008F8002801D099
:10095000012080BD00F026F8002080BDB0B505461E
:100960000E4801680124002916D07D20C000FFF741
:10097000BFFB014676480068FFF7BAFB00F030F88D
:10098000032D09D8002807D10024E0432946224638
:1009900000F00AF8024805602046B0BDCC000020F7
:1009A000D000002070470000002805D40322034631
:1009B0009343094A9A1803E00C220240074BD218CD
:1009C0008007C00E8901C9B28140FF2383401068AF
:1009D000984308431060704700E400E014ED00E025
:1009E000401E010E01D0012070470749554A506052
:1009F000064803680B40032189075918016000204D
:100A00009060072111607047FFFFFF0020ED00E0BC
:100A1000FEE7000070B50268002A21D40268144B7A
:100A200013400A681A434B6813430A691A438C68D7
:100A300022430260012215040E4B1E68AE43CD68AE
:100A400035431D600425EC41032C03D81C680225A6
:100A500025431D604969002904D00904491C04E0AC
:100A6000002070BD4168012291434160104670BD75
:100A70000F7CF3FF00020140F0B582B00D460B6819
:100A8000002B44D0002200950EE069696443644362
:100A900061430F236343446A9C430C434462521CEA
:100AA0002B681C46D44032D0012494401C40F6D020
:100AB0002346634369681E464E4303275F43056828
:100AC000BD4335430560FE4301914D1E012D06D8FF
:100AD000009DAD685D43876837402F43876031468E
:100AE000009E35695D43C7680F402F43C760019979
:100AF00002293546D3D1240AC7D15B4369695943DA
:100B00000F245C43036AA3430B430362C7E769688E
:100B1000491E012905D8E968594342689A430A43A6
:100B20004260012002B0F0BD80B57D21C900FFF711
:100B3000DFFA401E034948600020886005200860F5
:100B400080BDC04610E000E0014908607047C04623
:100B5000C800002010B50468A54A904202D01B4B83
:100B6000984204D170239C434B68234300E0234602
:100B7000174CA04208DD90420CD09E4CA04209D0F8
:100B80009D4CA04206D01FE0104CA04202D0114C58
:100B9000A04219D103242402A343CC681C4304605F
:100BA0008B68C3620B888362904205D0914A904261
:100BB00002D0914A904201D1097C0163426901212E
:100BC0000A434261084610BD1C46E8E700040040A5
:100BD000FF2B014000200040F0B584B00027FF2922
:100BE00044DC012966D0102900D0FDE0016A102301
:100BF00099430162016A3023994313695B085C01E0
:100C00000C43176851680901214345688369784E90
:100C1000B04205D0774EB04202D0774EB04219D1E3
:100C20000326B602B543546903943E469769D469D6
:100C30000294BF00734C3C4037462C43029DED00AC
:100C40002543C024A143039C6408E4010C4391683C
:100C500089012143456073242402A3433C021C43C1
:100C60008461D268826301620127BDE0012425020C
:100C7000A9425CD02503A94200D0B5E0016AA9438E
:100C80000162016A45681668536803931369029309
:100C9000C769574B984206D0564B984203D0564BE3
:100CA000984200D088E001239B039D4393699B01F8
:100CB0002B4382E00127F943046A0C400462146963
:100CC0000C40056A03239D43254311680391516835
:100CD000294346688569464CA04205D0454CA04250
:100CE00002D0454CA04218D11C02A6430124630245
:100CF0000093536902939369D4690194009CA343C0
:100D00003343019C66001E430C239943029B5B08FE
:100D1000DB000B43916889001943039C46607323F1
:100D20009D4325438561D268426301625CE00127EF
:100D30003902036A8B4303623149491C13691C025F
:100D40000C40032103910902056A8D432543116874
:100D5000029151680C022C434668C56924498842B7
:100D600005D02449884202D0234988421AD10399E8
:100D700009038E43516901919169D3690093090177
:100D80001E4B0B40334300994E011E4303998902C9
:100D90008C431C49091D019B9B020B402343916816
:100DA0008C021C43466073218D4302990D43C5613B
:100DB000D168C163046217E02B46436073231B02B2
:100DC0009F4333023B43C361D26802640322120390
:100DD00091430A4A1032029B1B0313400B430399B1
:100DE0000903194301622746384604B0F0BDC046E6
:100DF000002C01400048014000440140F0DFFFFFAB
:100E0000FFFDFFFFFCF7FFFF70477047704770471B
:100E100007480168074A0A40074909681143012247
:100E200053030B430360D006044908607047C04673
:100E3000041002400000FFFF040FFF1F08ED00E058
:100E400080B507480168C90708D0011F0968C907AC
:100E500004D00121C9430160FFF764FA80BDC04698
:100E6000102C0140C2B204494A600A685206FCD5FF
:100E70004022D2430A607047004400409CB0DD48E5
:100E800000210160DC480160DC480160DC4F396012
:100E9000DC480160DC480160DC480C910170FFF720
:100EA00051FD0125E802DA4B996B01439963996B77
:100EB00001400E910E98586B022108435863586BFD
:100EC000069108400E900E982A02184608380168CC
:100ED000089211430160AA0201681142FCD00492F9
:100EE0000F200002196881431960186807210991D1
:100EF0008843186018688006400FFBD109980003EA
:100F0000196881431960C34E3046FFF70DFE304625
:100F1000FFF71AFE0C9E3046FFF70CFAFFF726FA91
:100F2000F04305907F38BC4BBC4C2118C21880267A
:100F3000925D8A55401CF8D32078FF280ED1B7481F
:100F4000417800290AD18178552907D1C178AA2989
:100F500004D10079012801D1B1A011E0FF20207057
:100F60000C9A62705521A170AA21E17025716671F9
:100F7000A271E071A2600598E06022616061AEA09C
:100F800000F060FCB14800F05DFCB1A000F05AFC3C
:100F9000B4A000F057FCA179B9A000F0C5FAAB48A5
:100FA00000F050FC0C9C13941294119410940F9424
:100FB0000E941B941A9419941894179416949449A7
:100FC000C86A2843C862C86A28400D900D98C86A4C
:100FD000069A1043C862C86A10400D900D981A9581
:100FE000169203200A90179005200007079016A973
:100FF0000B91FFF741FD06981A90179416950798E4
:101000000B99FFF739FD6805814A916B01439163A4
:10101000916B01400D911294280411901094680274
:101020000B900F900D989B480EA9FFF7F3FC0A98C0
:101030008004984A116881431160106996490840FC
:10104000106110680840106019200005516889B2CD
:101050000818506050682843506068048F490A6837
:1010600002430A604A6802434A608D490A680243A3
:101070000A600D948B4800688B49FFF739F8C82146
:10108000039148430D900D98002802D00D98401E02
:10109000F8E70C9C12940EA90C740E940998088021
:1010A00011940F94F7481090F748FFF753FD0598F7
:1010B000401EF5490861086830430860F34801683C
:1010C000FF26B14301602903FD4A11603102036824
:1010D0008B43036068031060F44908682843086084
:1010E0000D94F3480068F349FFF702F80399414370
:1010F0000D910D98002803D00D98401E0D90F8E733
:10110000EE49C8682843C8600868284308600C9CFA
:1011100012940EA90C740E940998088011940F94DF
:101120001096E84E3046FFF715FDE803716C014359
:1011300071643068284330601A94199418940D2013
:101140001B900698179004200990169016AE0798E9
:101150003146FFF791FC1B950698179021201690B9
:10116000D9483146FFF788FC1B940A9817900998D4
:101170001690D6483146FFF77FFC1B940A981790CB
:101180000498169007983146FFF776FC1B940A984E
:10119000179040201690CC483146FFF76DFC15940F
:1011A00013941094149412940F9570200E9011942F
:1011B0000EAEC44829463246FFF70EFD11941021A9
:1011C000C0483246FFF708FD1194BE4808993246E0
:1011D000FFF702FD08E0FFF7B9FA07980090CA4848
:1011E000099A0A9B00F0A0F9A949AA4BAA4AAC4E59
:1011F00062E0C0467801002094010020D800002061
:1012000064010020A4010020A80100206801002042
:101210000810024000127A00803F0008E000002021
:10122000454550524F4D20636F6E66696720666F6B
:10123000756E642E200D00004E6F20636F6E666920
:101240006720666F756E642E200D00004919000836
:10125000505933324C45442044656D6F2056302E32
:10126000310D00004769746875622F4F5348574825
:1012700075623A20406C696263303630370D000089
:101280004C454420416464726573733A2025640DB3
:101290000A00000000020140FFF7FFFF00180240B3
:1012A00080180240C800002080841E0088A000F042
:1012B0003BF9784B784A764930680128FCD13C46A6
:1012C0000C98306008680F461968401A0B998A31EB
:1012D000884204D838681968401AC72845D80020C1
:1012E000106039462746206010681828E4D10C9811
:1012F000106001463A68CA402A401018491C182953
:10130000F8D13968C007D1D17A4800F00DF93868B2
:1013100009906949491C614A12684A436749496A08
:1013200051180023744A88181A465A410A92734C7D
:1013300014CC8A1A1A46A2412A4600D31A46002A19
:10134000044600D10C466D490C60002A0A9B09989E
:1013500000D113464B60C102C90E534A92791F292E
:101360001CD091421AD06F485CE0386819684A4A2C
:101370001268521C484E3260494E474A401A08993A
:101380007731884239462746AED910680F46182172
:10139000081A2946814020680843A2E70102490F44
:1013A00003292AD001293BD10104C90E574A1170E3
:1013B0004105C90E564A11708006C00E5549087085
:1013C000554843600460514800781178514A1278BA
:1013D0000090019102925148224600F0A5F84B4836
:1013E00000784B4909784B4A1278C000354B586356
:1013F000D0009863C800D8635BE70104CA0E810679
:10140000C90E8A4209D181090A9107921F220A99BD
:101410008A4307999142079908D00090384801E023
:1014200000903F48224600F07FF842E709940A9373
:101430001D4CA171C843E071FFF76AFA00201690B5
:1014400001201090174E0F9606980E900EA816A920
:10145000FFF71CF8002805D010E0124880308642C3
:1014600000D3B8E6012031462246FFF779F900287B
:1014700000D180340028F0D18036EEE7214800F01A
:10148000E1F9FEE70F270000002C01400CE400E02A
:101490007801002094010020D8000020A401002041
:1014A000A8010020803F0008E00000200002014069
:1014B000C800002080841E000F270000002C01407F
:1014C00000E100E00004004000040050001400505F
:1014D000726563763A2025782C20696E76616C6996
:1014E00064207061726974792C2069676E6F72650F
:1014F0000D0A0000BD180008102700007001002030
:101500000E1900083519000884180008A2010020EF
:10151000A1010020A0010020980100209D180008D2
:10152000F6180008D51800080FB410B503A9044B2D
:10153000044A029800F018F810BC08BC04B0184720
:10154000650E0008C000002002E008C8121F08C194
:10155000002AFAD170477047002001E001C1121F34
:10156000002AFBD170470000FFB58FB00F4604463C
:10157000002606E025280AD0129A11999047641C8B
:10158000761C20780028F5D1304613B0F0BD002538
:101590000121A14A009500E00543641C2378084618
:1015A000203B98401042F7D120782E2815D10420F6
:1015B00005436078641C2A280AD101CF641C00907E
:1015C0000BE000990A22514330394018641C009006
:1015D0002078014630390929F3D920786C280ED0BB
:1015E00004DC4C2813D06A2812D104E074280ED0F1
:1015F0007A280DD10BE001204005054307E00121C9
:10160000090562780D43824201D16D18641C641C87
:101610002078864669284AD008DC0028B4D05828AB
:101620006DD0632810D0642808D140E070286BD0BA
:10163000732812D0752860D0782860D0129A70462E
:1016400011999047761CE5E03878694608720020C9
:10165000487202A80190012003E038680190002040
:10166000C0433F1D69070CD5002500E06D1C0099A3
:101670008D420FDA8542F9DB0199495D0029F5D1E8
:1016800008E0002500E06D1C8542FCDB0199495D06
:101690000029F8D1761907E0019801990078491CD2
:1016A0000191129A119990476D1EF5D2B2E00A206D
:1016B000029000216802400F039102280CD001CF54
:1016C000C117844600290DDA6246084652420021BD
:1016D000814194462D2008E0FF1DFF08FF0003CF45
:1016E0008446EFE7280504D52B206A4610740120B4
:1016F0003CE0E8073AD02020F7E70A2000E010207D
:1017000000210391029007E01020029000210420A4
:1017100005430820039100906802400F022810D072
:1017200001CF0021844600200D9028071FD5704668
:1017300070280CD0029A1020039B42401A430CD010
:1017400015E0FF1DFF08FF0003CF8446EBE74020B4
:101750006A46107401200D900CE06046084306D0E4
:1017600030206A4610747046507402200D90704606
:10177000582804D029A001900DA80E900DE02CA0AF
:10178000F9E76046039B029AFEF7D1FC019B844671
:101790009B5C0E9A521E0E92137060460843F0D165
:1017A0000E9805A9081A20300190680701D5009805
:1017B00001E0012000900199884203DD0146019873
:1017C000081A00E000200025009006E004A8129A04
:1017D000405D119990476D1C761C0D988542F5DB94
:1017E00004E0129A302011999047761C0099481E07
:1017F00000900029F5DC08E00E980E990078491C4D
:101800000E91129A11999047761C0199481E0190E9
:101810000029F1DC641CB4E60928010030313233C0
:10182000343536373839616263646566000000001C
:101830003031323334353637383941424344454606
:101840000000000010B5044601E0FFF70BFB207814
:10185000641C03490028F8D10A20FFF703FB10BDE0
:10186000C00000201C0FFF1F300FFF1F440FFF1F81
:10187000580FFF1F6C0FFF1F1C0FFF1F1C0FFF1FB8
:101880001C0FFF1F5B256C6C755D636D64207365B9
:10189000745F616464722C2025640D0A005B256C02
:1018A0006C755D636D64207365745F636F6C6F72DC
:1018B0002C2025642C25642C25640D0A0072656398
:1018C000763A2025782C2070617269747920676FD0
:1018D0006F640D0A005B256C6C755D746865207023
:1018E00061636B6574206973206E6F7420666F721C
:1018F0002075730D0A005B256C6C755D636D64204B
:10190000756E6B6E6F776E3A2025780D0A005B2539
:101910006C6C755D636D64207365745F6164647283
:101920002C20696C6C6567616C206672616D652046
:1019300025780D0A004150505F4572726F72486100
:101940006E646C657228290D003D3D3D3D3D3D3D79
:101950003D3D3D3D3D3D3D3D3D3D3D3D3D3D3D3DB7
:101960003D3D0D008819000800000020D80000004F
:1019700048150008601A0008D8000020D8040000AC
:1019800058150008000000000000000000000000E2
:101990000000000000000000000000000000000047
:1019A0000000000000000000000000000000000037
:1019B0000000000000000000000000000000000027
:1019C0000000000000000000000000000000000017
:1019D0000000000000000000000000000000000007
:1019E00000000000000000000000000000000000F7
:1019F00000000000000000000000000000000000E7
:101A000000000000000000000000000000000000D6
:101A100000000000000000000000000000000000C6
:101A200000000000000000000000000000000000B6
:101A300000000000000000000000000000000000A6
:101A40000000000000000000000000000004005042
:101A500000127A00010000000400000000000000F5
:04000005080000C12E
:00000001FF
